:020000040800F2
:10000000880600208901000891010008930100087A
:100010009501000897010008990100080000000000
:100020000000000000000000000000009B0100082C
:100030009D010008000000009F010008A1010008C8
:10004000A3010008A3010008A3010008A301000800
:10005000A3010008A3010008A3010008A3010008F0
:10006000A3010008A301000843020008A30100083F
:10007000A3010008A3010008A3010008A3010008D0
:10008000A3010008A3010008A3010008A3010008C0
:10009000A3010008A3010008A3010008A3010008B0
:1000A000A3010008A3010008A3010008A3010008A0
:1000B000A3010008B908000800000000A30100081F
:1000C000A30100080000000000000000A3010008D8
:1000D00000000000A3010008A301000800000000C8
:1000E000A3010008A3010008A301000800F002F822
:1000F00000F03AF80AA090E8000C82448344AAF188
:100100000107DA4501D100F02FF8AFF2090EBAE885
:100110000F0013F0010F18BFFB1A43F0010318473B
:10012000B4100000D4100000103A24BF78C878C181
:10013000FAD8520724BF30C830C144BF04680C60ED
:10014000704700000023002400250026103A28BF35
:1001500078C1FBD8520728BF30C148BF0B60704739
:100160001FB51FBD10B510BD00F031F81146FFF7E7
:10017000F7FF00F03FFD00F04FF803B4FFF7F2FF88
:1001800003BC00F057F800000948804709480047C1
:10019000FEE7FEE7FEE7FEE7FEE7FEE7FEE7FEE737
:1001A000FEE7FEE704480549054A064B7047000094
:1001B00059080008ED00000888000020880600208B
:1001C00088020020880200207047704770477546FB
:1001D00000F02CF8AE4605006946534620F00700B3
:1001E000854618B020B5FFF7DDFFBDE820404FF091
:1001F00000064FF000074FF000084FF0000B21F011
:100200000701AC46ACE8C009ACE8C009ACE8C009DD
:10021000ACE8C0098D46704710B50446AFF30080C6
:100220002046BDE81040FFF7A8BF00000048704717
:100230002400002001491820ABBEFEE72600020082
:10024000704710B5102000F00DF8012802D11020E1
:1002500000F002F810BD000001490860704700007E
:1002600014040140014600200022074B1B6803EAEA
:100270000102054B14331B680B4013B10AB1012076
:1002800000E00020704700000004014000212349E5
:100290008279002A3AD00A46126803689A430B46CC
:1002A0001A600A1D126803689A430B1D1A600279CE
:1002B00011440A6803681A430A60184A083212682F
:1002C00003689A43154B08331A601A1D12680368B5
:1002D0009A43124B0C331A604279102A0ED11A1F1E
:1002E000126803681A430D4B08331A601A1D12680E
:1002F00003681A43094B0C331A600DE00749427931
:1003000011440A6803681A430A6005E0027911443F
:100310000A6803689A430A607047000000040140BD
:1003200030B500228B071C0F0F2303FA04F20B4B8E
:100330008C1053F824309343084C8D1044F825302A
:1003400023468C1053F824308C07240F00FA04F451
:100350002343024C8D1044F8253030BD0800014085
:100360002DE9F0410246002500260020002300244C
:10037000002791F803C00CF00F0591F803C00CF0B2
:10038000100CBCF1000F03D091F802C04CEA050537
:1003900091F800C0BCF1000F31D0146800202BE0B0
:1003A0004FF0010C0CFA00F3B1F800C00CEA0306A0
:1003B0009E4220D183004FF00F0C0CFA03F7BC4390
:1003C00005FA03FC4CEA040491F803C0BCF1280FC1
:1003D00006D14FF0010C0CFA00FCC2F814C00AE080
:1003E00091F803C0BCF1480F05D14FF0010C0CFA95
:1003F00000FCC2F810C0401C0828D1D31460B1F82A
:1004000000C0BCF1FF0F34DD546800202EE000F185
:10041000080C4FF0010808FA0CF3B1F800C00CEA20
:1004200003069E4221D183004FF00F0C0CFA03F714
:10043000BC4305FA03FC4CEA040491F803C0BCF188
:10044000280F05D100F1080C08FA0CF8C2F8148046
:1004500091F803C0BCF1480F07D100F1080C4FF030
:10046000010808FA0CF8C2F81080401C0828CED306
:100470005460BDE8F0810000F0B50A460023002476
:100480000021002500F00046B6F1004F02D11D4EBC
:10049000F16901E01B4E7168C0F3034583B200F4BB
:1004A0004016B6F5401F08D121F07061154E7668F0
:1004B00026F07066134F7E6012E000F48016B6F5E9
:1004C000801F06D1032606FA05F4A14341F07061AE
:1004D00006E0460D360103FA06F6B14341F07061BD
:1004E00022B1460D360103FA06F6314300F000460C
:1004F000B6F1004F02D1034EF16101E0014E71608F
:10050000F0BD0000000001400246002093680B404F
:100510000BB1012000E0002070474161704701618C
:100520007047000008B50121082000F0A7F801215C
:100530000648FFF7A1FF1020ADF8000048208DF815
:10054000030069460248FFF70BFF08BD00043000B6
:10055000000C014008B50121082000F08FF8402070
:10056000ADF8000048208DF8030069460148FFF708
:10057000F7FE08BD000C014070B5002100230F22DA
:10058000C47804B3154C246804F4E064C4F5E06452
:10059000210AC1F10403CA40447804FA03F18478C3
:1005A0001440214309010E4C0678A155047804F04B
:1005B0001F050124AC4005786D11AD0005F1E02563
:1005C000C5F8004109E0047804F01F050124AC409F
:1005D000044D0678761145F8264070BD0CED00E01C
:1005E00000E400E080E100E002490143024A1160BA
:1005F000704700000000FA050CED00E003490968AF
:1006000041EA8001014A116070470000007000401B
:1006100010B5024600200C4B186820F00300104370
:1006200018600A4B1B6843F00403084C236001293F
:1006300001D130BF00E020BF044B1B6823F004034E
:10064000024C236010BD00000070004010ED00E07F
:100650000149086070470000A0000E4229B1064A17
:10066000D2690243044BDA6104E0034AD26982434F
:10067000014BDA61704700000010024029B1064AC0
:1006800092690243044B9A6104E0034A92698243EF
:10069000014B9A61704700000010024030B5002104
:1006A0000022002400232D4D6D6805F00C0121B1BE
:1006B000042905D0082923D105E0294D056022E051
:1006C000274D05601FE0254D6D6805F47012234D20
:1006D0006D6805F48034022505EB92421CB9214D6A
:1006E000554305600BE01D4D6D6805F400351DB1E7
:1006F0001C4D5543056002E0194D5543056002E06D
:10070000174D056000BF00BF144D6D6805F0F00186
:100710000909154D6B5C0568DD4045600F4D6D683E
:1007200005F4E061090A104D6B5C4568DD408560A9
:100730000A4D6D6805F46051C90A0B4D6B5C456844
:10074000DD40C560054D6D6805F44041890B074DDE
:100750006B5CC568B5FBF3F5056130BD0010024068
:1007600000127A0000093D00000000201000002067
:1007700010B500F001F810BD0CB5002001900090FC
:100780003348006840F480303149086000BF304889
:10079000006800F4003000900198401C019000981F
:1007A00018B90198B0F5A06FF1D12948006800F49C
:1007B000003010B10120009001E00020009000986E
:1007C000012843D12348006840F010002149086007
:1007D0000846006820F0030008600846006840F002
:1007E000020008601A484068194948600846406895
:1007F00048600846406840F48060486008464068A9
:1008000020F47C1048600846406840F4E8104860D6
:100810000846006840F08070086000BF0C4800681F
:1008200000F000700028F9D00948406820F003006B
:10083000074948600846406840F00200486000BF31
:100840000348406800F00C000828F9D10CBD0000F6
:10085000001002400020024010B51348006840F02C
:1008600001001149086008464068104908400E49D7
:100870004860084600680E4908400B490860084671
:10088000006820F4802008600846406820F4FE00DC
:1008900048604FF41F008860FFF76AFF4FF0006068
:1008A0000449086010BD0000001002400000FFF87D
:1008B000FFFFF6FE08ED00E010B50121064800F04C
:1008C0001EF840B105480068401C04490860012139
:1008D000014800F005F810BD00040040140000209D
:1008E000CA430282704721B1028842F001020280AD
:1008F00004E002884FF6FE731A400280704730B55C
:100900000246002000230024158A05EA0103958988
:1009100005EA010413B10CB1012000E0002030BD54
:100920001AB183890B43838102E083898B438381DE
:100930007047818470470000002202881D4B984256
:100940000ED01D4B98420BD0B0F1804F08D01B4BFE
:10095000984205D01A4B984202D01A4B984204D1C3
:100960004FF68F731A404B881A43174B984207D0A3
:10097000164B984204D04FF6FF431A40CB881A43D7
:1009800002808B8883850B8803850A4B98420BD0A5
:10099000094B984208D00E4B984205D00D4B984217
:1009A00002D00D4B984201D10B7A0386012383823A
:1009B00070470000002C014000340140000400405A
:1009C00000080040000C00400010004000140040EF
:1009D00000400140004401400048014001F4007221
:1009E000B2F5007F00D100BFCA430280704721B139
:1009F000828942F40052828104E082894DF6FF73BD
:100A00001A408281704702460020B1F5007F00D174
:100A100000BF13880B400BB1012000E0002070479D
:100A20002DE9F04786B005460E460024A24600BFD9
:100A3000A1460027B08900B100BF2F462C8A4CF692
:100A4000FF700440F08804432C82AC894EF6F3100A
:100A50000440B08831890843718908430443AC815C
:100A6000AC8A4FF6FF400440B0890443AC8201A831
:100A7000FFF714FE1F48874202D1DDF810A001E005
:100A8000DDF80CA0A88900F4004040B10AEBCA00D0
:100A900000EB0A1031684900B0FBF1F807E00AEBFF
:100AA000CA0000EB0A1031688900B0FBF1F864203D
:100AB000B8FBF0F004012009642101FB1089A8892A
:100AC00000F4004040B1322000EBC900B0FBF1F06F
:100AD00000F00700044308E0322000EB0910642115
:100AE000B0FBF1F000F00F0004432C8106B0BDE82C
:100AF000F087000000380140C1F30802828070478F
:100B000010B586B00446012144F20400FFF7B6FD9B
:100B100018208DF817004FF40070ADF81400032072
:100B20008DF8160005A91448FFF71AFC04208DF86B
:100B300017000002ADF8140005A90F48FFF710FCDC
:100B400001940020ADF810000C20ADF80E0000203C
:100B5000ADF80C00ADF80A00ADF8080001A907488F
:100B6000FFF75EFF01210548FFF741FF40210348E1
:100B7000FFF734FF06B010BD000801400038014007
:100B800018B504460020009006E04FF47A7000F09B
:100B900007F80098401C00900098A042F5D318BDBB
:100BA0000CB5002101910BE00B21009102E00099AE
:100BB000491E009100990029F9D10199491C019120
:100BC00001998142F0D30CBD08B501211020FFF737
:100BD00055FD4FF40050ADF8000010208DF80300D3
:100BE00003208DF8020069460148FFF7B9FB08BDF4
:100BF000001001404FF41650FFF782FF4FF4A06041
:100C0000FFF7F2FCFFF7E0FFFFF78CFCFFF7A2FC19
:100C100000F09EFA00F0B2FA00F0C6FA00F020F9F7
:100C200000F034F900F04CFA10218548FFF777FC0A
:100C300040218348FFF773FC4FF400518148FFF7D0
:100C40006CFC00F017FAFAE040217D48FFF75CFCED
:100C500088B97D480068012803D07B4800680228D5
:100C600009D100F06FF900F05DFA77480068001DC7
:100C7000754908601CE040217148FFF745FCB8B198
:100C800071480068052803D06F48006806280FD116
:100C900000F008FA6C480068001F6B4908606B4858
:100CA00000686B49096808446849086000F03AFA2E
:100CB00010216348FFF728FC10BB6348006858B157
:100CC00061480068022807D05F480068032803D005
:100CD0005D480068062813D11420FFF751FF10214A
:100CE0005748FFF711FC0028ADD15AA000F0E4F8F6
:100CF00000F0F8F800F016FA0020574908609EE06E
:100D000010214F48FFF700FCA0B14F4800680528AC
:100D100010D152A000F0D0F800F0C4F900F0AAF908
:100D20004A4800684A49096808444849086000F090
:100D3000F9F984E04448006860B945480068B0F5B6
:100D4000E16F7CD100F0E6F800F0ECF900204249B8
:100D5000086074E03C480068062810D13C480068F0
:100D60000F286CD900F09EF900F084F90020384972
:100D700008601420FFF704FF00F0F2F85FE032484B
:100D80000068012814D132480068334908600846D9
:100D90000068052853D300F085F900F06BF90020B6
:100DA0002B4908602C49086004202749086046E068
:100DB00025480068022816D12548006826490860A1
:100DC0000846006802283AD300F06CF900F052F9A6
:100DD00000F0A8F90020204908601420FFF7D0FE99
:100DE00000F0BEF82BE018480068042827D1184806
:100DF000007800F0010028B94FF400511148FFF7C6
:100E00008EFB04E04FF400510E48FFF786FB4021B3
:100E10000B48FFF779FB38B900200B4908604FF405
:100E200000510848FFF779FB10210548FFF76CFBDC
:100E300028B1074800680A2801D900F091F803E7B3
:100E4000000C01400010014020000020180000208C
:100E500014000020310D0A001C000020300D0A0093
:100E600008B501210820FFF709FC4FF40050ADF848
:100E7000000010208DF8030003208DF80200694661
:100E80000148FFF76DFA08BD000C014008B50121CB
:100E90000820FFF7F3FB4FF48040ADF8000010206E
:100EA0008DF8030003208DF8020069460148FFF722
:100EB00057FA08BD000C014010B504460BE000BF16
:100EC00080210748FFF79FFD0028F9D021780448CA
:100ED000FFF712FE641C20780028F0D110BD00003E
:100EE0000038014010B580210848FFF718FB4FF487
:100EF00080710648FFF711FB4FF400710348FFF7BC
:100F00000CFB01200249086010BD0000000C0140EC
:100F10002000002010B580210848FFF7FEFA4FF4AA
:100F200080710648FFF7FBFA4FF400710348FFF7A2
:100F3000F6FA02200249086010BD0000000C0140D2
:100F40002000002010B54FF400510448FFF7E7FAE5
:100F50004FF480410148FFF7E2FA10BD000C014058
:100F600000B587B04FF400513E48FFF7D8FA002192
:100F70003D48FFF7B8FC03203C4908600121080701
:100F8000FFF76CFB01210920FFF778FB1020ADF87B
:100F9000180048208DF81B0003208DF81A0006A9C0
:100FA0003348FFF7DDF904210120FFF7B9F91020DC
:100FB000049000208DF814000C208DF815000120FD
:100FC0008DF8160004A8FFF761F94FF4A060FFF751
:100FD0000BFB0A208DF80C0000208DF80D008DF819
:100FE0000E0001208DF80F0003A8FFF7C5FA0120BD
:100FF000FFF72EFB0120FFF701FB1020FFF72CF974
:101000001020019000208DF808000C208DF80900B8
:1010100001208DF80A0001A8FFF738F90120FFF739
:1010200017FB01210846FFF7F3FA012144F20400FF
:10103000FFF724FB00214FF08050FFF70FFBFFF775
:101040000BFC4FF41650FFF75BFD00F039F84FF43E
:1010500000510448FFF761FA00200449086007B016
:1010600000BD0000001001400004004020000020EE
:10107000000C014010B580210848FFF74EFA4FF4EC
:1010800080710648FFF749FA4FF400710348FFF7F3
:1010900044FA00200249086010BD0000000C014025
:1010A0002000002010B54FF400510448FFF735FA36
:1010B0004FF480410148FFF730FA10BD000C0140A9
:1010C0001FB501210220FFF7C9FA42F20F70ADF8F7
:1010D000040041F61F40ADF800000020ADF8060006
:1010E000ADF8020069460E48FFF726FC01221146C2
:1010F0000B48FFF715FC1D208DF80C0001208DF822
:101100000F0000208DF80D0001208DF80E0003A8BF
:10111000FFF732FA01210248FFF7E5FB1FBD00008F
:101120000004004010B500210748FFF7DCFB002059
:101130000649086000210448FFF7FBFB0121024833
:10114000FFF7D1FB10BD0000000400401400002098
:1011500008B501210820FFF791FA8020ADF80000C2
:1011600010208DF8030003208DF802006946024824
:10117000FFF7F6F808BD0000000C014008B501219A
:101180000820FFF77BFA4FF48070ADF800001020C4
:101190008DF8030003208DF8020069460148FFF72F
:1011A000DFF808BD000C014008B501210820FFF759
:1011B00065FA4FF40070ADF8000010208DF80300C0
:1011C00003208DF8020069460148FFF7C9F808BD01
:1011D000000C0140F4110008000000202400000071
:1011E00028010008181200082400002064060000EE
:1011F000440100080000000001020304010203048E
:1012000006070809020406080000000000000000AC
:081210000000000000000000D6
:04000005080000ED02
:00000001FF
