:020000040800F2
:10000000B006002089010008910100089301000852
:100010009501000897010008990100080000000000
:100020000000000000000000000000009B0100082C
:100030009D010008000000009F010008A1010008C8
:10004000A3010008A3010008A3010008A301000800
:10005000A3010008A3010008A3010008A3010008F0
:10006000A3010008A301000843020008A30100083F
:10007000A3010008A3010008A3010008A3010008D0
:10008000A3010008A3010008A3010008A3010008C0
:10009000A3010008A3010008A3010008A3010008B0
:1000A000A3010008A3010008A3010008A3010008A0
:1000B00079070008A301000800000000A301000860
:1000C000A30100080000000000000000A3010008D8
:1000D00000000000A3010008A301000800000000C8
:1000E000A3010008A3010008A301000800F002F822
:1000F00000F03AF80AA090E8000C82448344AAF188
:100100000107DA4501D100F02FF8AFF2090EBAE885
:100110000F0013F0010F18BFFB1A43F0010318473B
:10012000180E0000380E0000103A24BF78C878C1BD
:10013000FAD8520724BF30C830C144BF04680C60ED
:10014000704700000023002400250026103A28BF35
:1001500078C1FBD8520728BF30C148BF0B60704739
:100160001FB51FBD10B510BD00F031F81146FFF7E7
:10017000F7FF00F0C9FC00F04FF803B4FFF7F2FFFF
:1001800003BC00F057F800000948804709480047C1
:10019000FEE7FEE7FEE7FEE7FEE7FEE7FEE7FEE737
:1001A000FEE7FEE704480549054A064B7047000094
:1001B00019070008ED000008B0000020B00600207C
:1001C000B0020020B00200207047704770477546AB
:1001D00000F02CF8AE4605006946534620F00700B3
:1001E000854618B020B5FFF7DDFFBDE820404FF091
:1001F00000064FF000074FF000084FF0000B21F011
:100200000701AC46ACE8C009ACE8C009ACE8C009DD
:10021000ACE8C0098D46704710B50446AFF30080C6
:100220002046BDE81040FFF7A8BF00000048704717
:100230005000002001491820ABBEFEE72600020056
:10024000704710B5102000F00DF8012802D11020E1
:1002500000F002F810BD000001490860704700007E
:1002600014040140014600200022074B1B6803EAEA
:100270000102054B14331B680B4013B10AB1012076
:1002800000E0002070470000000401402DE9F0412B
:10029000024600250026002000230024002791F8B4
:1002A00003C00CF00F0591F803C00CF0100CBCF16A
:1002B000000F03D091F802C04CEA050591F800C088
:1002C000BCF1000F31D0146800202BE04FF0010C7E
:1002D0000CFA00F3B1F800C00CEA03069E4220D1EC
:1002E00083004FF00F0C0CFA03F7BC4305FA03FC34
:1002F0004CEA040491F803C0BCF1280F06D14FF07A
:10030000010C0CFA00FCC2F814C00AE091F803C01A
:10031000BCF1480F05D14FF0010C0CFA00FCC2F8FB
:1003200010C0401C0828D1D31460B1F800C0BCF143
:10033000FF0F34DD546800202EE000F1080C4FF070
:10034000010808FA0CF3B1F800C00CEA03069E425B
:1003500021D183004FF00F0C0CFA03F7BC4305FAD0
:1003600003FC4CEA040491F803C0BCF1280F05D14A
:1003700000F1080C08FA0CF8C2F8148091F803C0D8
:10038000BCF1480F07D100F1080C4FF0010808FA42
:100390000CF8C2F81080401C0828CED35460BDE889
:1003A000F0810000F0B50A4600230024002100255A
:1003B00000F00046B6F1004F02D11D4EF16901E098
:1003C0001B4E7168C0F3034583B200F44016B6F5C6
:1003D000401F08D121F07061154E766826F07066D6
:1003E000134F7E6012E000F48016B6F5801F06D130
:1003F000032606FA05F4A14341F0706106E0460DBC
:10040000360103FA06F6B14341F0706122B1460DA0
:10041000360103FA06F6314300F00046B6F1004F0C
:1004200002D1034EF16101E0014E7160F0BD0000A8
:10043000000001400246002093680B400BB10120F0
:1004400000E0002070474161704701617047000083
:1004500008B51020ADF8000048208DF803000320F7
:100460008DF8020069460248FFF710FF08BD000042
:10047000000C014008B54020ADF8000003208DF8C5
:10048000020048208DF8030069460248FFF7FEFE8F
:1004900008BD0000000C014070B5002100230F22B0
:1004A000C47804B3154C246804F4E064C4F5E06433
:1004B000210AC1F10403CA40447804FA03F18478A4
:1004C0001440214309010E4C0678A155047804F02C
:1004D0001F050124AC4005786D11AD0005F1E02544
:1004E000C5F8004109E0047804F01F050124AC4080
:1004F000044D0678761145F8264070BD0CED00E0FD
:1005000000E400E080E100E002490143024A11609A
:10051000704700000000FA050CED00E029B1064A22
:10052000D2690243044BDA6104E0034AD269824390
:10053000014BDA61704700000010024029B1064A01
:1005400092690243044B9A6104E0034A9269824330
:10055000014B9A61704700000010024030B5002145
:100560000022002400232D4D6D6805F00C0121B1FF
:10057000042905D0082923D105E0294D056022E092
:10058000274D05601FE0254D6D6805F47012234D61
:100590006D6805F48034022505EB92421CB9214DAB
:1005A000554305600BE01D4D6D6805F400351DB128
:1005B0001C4D5543056002E0194D5543056002E0AE
:1005C000174D056000BF00BF144D6D6805F0F001C8
:1005D0000909154D6B5C0568DD4045600F4D6D6880
:1005E00005F4E061090A104D6B5C4568DD408560EB
:1005F0000A4D6D6805F46051C90A0B4D6B5C456886
:10060000DD40C560054D6D6805F44041890B074D1F
:100610006B5CC568B5FBF3F5056130BD00100240A9
:1006200000127A0000093D000000002010000020A8
:1006300010B500F001F810BD0CB50020019000903D
:100640003348006840F480303149086000BF3048CA
:10065000006800F4003000900198401C0190009860
:1006600018B90198B0F5A06FF1D12948006800F4DD
:10067000003010B10120009001E0002000900098AF
:10068000012843D12348006840F010002149086048
:100690000846006820F0030008600846006840F043
:1006A000020008601A4840681949486008464068D6
:1006B00048600846406840F48060486008464068EA
:1006C00020F47C1048600846406840F4E810486018
:1006D0000846006840F08070086000BF0C48006861
:1006E00000F000700028F9D00948406820F00300AD
:1006F000074948600846406840F00200486000BF73
:100700000348406800F00C000828F9D10CBD000037
:10071000001002400020024010B51348006840F06D
:1007200001001149086008464068104908400E4918
:100730004860084600680E4908400B4908600846B2
:10074000006820F4802008600846406820F4FE001D
:1007500048604FF41F008860FFF76AFF4FF00060A9
:100760000449086010BD0000001002400000FFF8BE
:10077000FFFFF6FE08ED00E010B50121880700F04C
:100780004AF870B317480068052803D31548006875
:10079000401F01E013480068044610211248FFF78B
:1007A00049FE124941F8240040210F48FFF742FE5C
:1007B0000F4941F824000B480068401C09490860B3
:1007C000084600680A2807D30A480068401C0949FF
:1007D00008600020034908600121880700F00CF838
:1007E00000BF10BD14000020000C014028000020B4
:1007F0003C00002018000020CA430282704721B14B
:10080000028842F00102028004E002884FF6FE7383
:100810001A400280704730B50246002000230024B1
:10082000158A05EA0103958905EA010413B10CB1A3
:10083000012000E0002030BD1AB183890B43838181
:1008400002E083898B438381704781847047000075
:10085000002202881D4B98420ED01D4B98420BD0AF
:10086000B0F1804F08D01B4B984205D01A4B9842EC
:1008700002D01A4B984204D14FF68F731A404B881E
:100880001A43174B984207D0164B984204D04FF6A4
:10089000FF431A40CB881A4302808B8883850B88DC
:1008A00003850A4B98420BD0094B984208D00E4B57
:1008B000984205D00D4B984202D00D4B984201D181
:1008C0000B7A03860123838270470000002C0140CD
:1008D000003401400004004000080040000C0040CB
:1008E000001000400014004000400140004401405E
:1008F0000048014001F40072B2F5007F00D100BF52
:10090000CA430280704721B1828942F40052828139
:1009100004E082894DF6FF731A408281704700001F
:100920002DE9F04786B005460E460024A24600BFDA
:10093000A1460027B08900B100BF2F462C8A4CF693
:10094000FF700440F08804432C82AC894EF6F3100B
:100950000440B08831890843718908430443AC815D
:10096000AC8A4FF6FF400440B0890443AC8201A832
:10097000FFF7F4FD1F48874202D1DDF810A001E027
:10098000DDF80CA0A88900F4004040B10AEBCA00D1
:1009900000EB0A1031684900B0FBF1F807E00AEB00
:1009A000CA0000EB0A1031688900B0FBF1F864203E
:1009B000B8FBF0F004012009642101FB1089A8892B
:1009C00000F4004040B1322000EBC900B0FBF1F070
:1009D00000F00700044308E0322000EB0910642116
:1009E000B0FBF1F000F00F0004432C8106B0BDE82D
:1009F000F08700000038014010B586B004460121A0
:100A000044F20400FFF79AFD18208DF817004FF408
:100A10000070ADF8140003208DF8160005A91448E5
:100A2000FFF734FC04208DF817000002ADF8140025
:100A300005A90F48FFF72AFC01940020ADF810002B
:100A40000C20ADF80E000020ADF80C00ADF80A0047
:100A5000ADF8080001A90748FFF762FF012105482A
:100A6000FFF751FF40210348FFF744FF06B010BDD8
:100A700000080140003801400021002004E0064A3F
:100A800052F820201144401C0528F8DB09B9002049
:100A900070470120FCE70000280000200021002012
:100AA00004E0064A52F820201144401C0528F8DBD7
:100AB00009B9002070470120FCE700003C0000203D
:100AC000002007E00121054A42F82010044A42F8BC
:100AD0002010401C0528F5DB70470000280000208E
:100AE0003C00002008B54FF40050ADF80000102085
:100AF0008DF8030003208DF8020069460148FFF7D6
:100B0000C5FB08BD001001404FF41650FFF774FFFD
:100B100001210920FFF712FD01211020FFF70EFD32
:100B200001217C48FFF73EFC4FF4A060FFF7ECFC8E
:100B3000FFF7C6FFFFF7D6FFFFF78AFCFFF79AFC27
:100B400000F0C4F900F0D4F900F0E4F900F0F0F896
:100B500000F000F900F074F94FF400516E48FFF70F
:100B600072FC00F047F9D4E0FFF798FF88B96B48B2
:100B70000068012803D069480068022809D100F004
:100B80002BF900F08DF965480068001D6349086085
:100B90001BE0FFF783FF012817D160480068052894
:100BA00003D05E48006806280FD100F03BF95B488F
:100BB0000068001F59490860594800685949096888
:100BC00008445749086000F06BF9FFF755FF98B9E2
:100BD0005248006858B151480068022807D04F4871
:100BE0000068032803D04D480068062804D100F0AF
:100BF000C3F800F055F985E0FFF73EFF012811D159
:100C00004648006805280DD100F00CF900F0F2F814
:100C1000434800684349096808444149086000F0B6
:100C20003FF96FE03D48006801280DD13D4800685C
:100C3000042867D300F0F6F800F0DCF800F030F993
:100C40000420364908605DE03448006804282BD150
:100C50003448007800F0010028B94FF400512E48C4
:100C6000FFF7F3FB04E04FF400512B48FFF7EBFBD9
:100C7000FFF714FF38B90020284908604FF40051ED
:100C80002548FFF7E0FBFFF7F7FE01283AD125489A
:100C900000680F2836D90020204908604FF4005121
:100CA0001D48FFF7D0FB2DE01C48006860B91D48C7
:100CB0000068B0F5E16F25D100F076F800F0F0F8AB
:100CC0000020194908601DE01448006806280BD16F
:100CD000144800680F2815D900F0A4F800F08AF82D
:100CE0000020104908600DE00C480068022809D176
:100CF0000C480068022805D300F094F800F07AF858
:100D000000F0CEF8074800680849884201D900F091
:100D1000C7F829E70004300000100140240000203B
:100D20001C000020180000202000002080F4030098
:100D300008B54FF40050ADF8000010208DF8030006
:100D400003208DF8020069460148FFF79FFA08BDAD
:100D5000000C014008B54FF48040ADF800001020B1
:100D60008DF8030003208DF8020069460148FFF763
:100D70008DFA08BD000C014010B580210848FFF72E
:100D800064FB4FF480710648FFF75DFB4FF4007180
:100D90000348FFF758FB01200249086010BD00001E
:100DA000000C01402400002010B580210848FFF706
:100DB0004AFB4FF480710648FFF747FB4FF4007180
:100DC0000348FFF742FB02200249086010BD000003
:100DD000000C01402400002010B54FF400510448DD
:100DE000FFF733FB4FF480410148FFF72EFB10BDA6
:100DF000000C014010B580210848FFF724FB4FF498
:100E000080710648FFF71FFB4FF400710348FFF79E
:100E10001AFB00200249086010BD0000000C0140D0
:100E20002400002010B54FF400510448FFF70BFBDD
:100E30004FF480410148FFF706FB10BD000C014054
:100E40001FB501210846FFF769FB40F2E730ADF816
:100E5000040041F61F40ADF800000020ADF8060088
:100E6000ADF8020069464FF08040FFF7F1FC012227
:100E700011469007FFF7E0FC1C208DF80C000120C4
:100E80008DF80F0000208DF80D0001208DF80E0068
:100E900003A8FFF701FB01218807FFF7B0FC1FBD86
:100EA00010B500214FF08040FFF7A9FC0020064953
:100EB000086000214FF08040FFF7C7FC0121880740
:100EC000FFF79DFC10BD00001800002008B5802031
:100ED000ADF8000010208DF8030003208DF802000B
:100EE00069460248FFF7D2F908BD0000000C014036
:100EF00008B54FF48070ADF8000010208DF80300A5
:100F000003208DF8020069460148FFF7BFF908BDCC
:100F1000000C014008B54FF40070ADF8000010203F
:100F20008DF8030003208DF8020069460148FFF7A1
:100F3000ADF908BD000C0140580F0008000000206A
:100F40002800000028010008800F00082800002069
:100F500088060000440100080000000001020304AC
:100F60000102030406070809020406080000000045
:100F70000000000000000000000000000000000071
:04000005080000ED02
:00000001FF
